{
  "abi": [
    {
      "inputs": [
        {
          "internalType": "address",
          "name": "_factory",
          "type": "address"
        },
        {
          "internalType": "address",
          "name": "_WETH",
          "type": "address"
        }
      ],
      "stateMutability": "nonpayable",
      "type": "constructor"
    },
    {
      "inputs": [],
      "name": "RequireDayTimelength",
      "type": "error"
    },
    {
      "inputs": [],
      "name": "RequireToStake",
      "type": "error"
    },
    {
      "inputs": [],
      "name": "RequireToUnstake",
      "type": "error"
    },
    {
      "anonymous": false,
      "inputs": [
        {
          "indexed": true,
          "internalType": "address",
          "name": "previousOwner",
          "type": "address"
        },
        {
          "indexed": true,
          "internalType": "address",
          "name": "newOwner",
          "type": "address"
        }
      ],
      "name": "OwnershipTransferred",
      "type": "event"
    },
    {
      "inputs": [],
      "name": "FACTORY",
      "outputs": [
        {
          "internalType": "address",
          "name": "",
          "type": "address"
        }
      ],
      "stateMutability": "view",
      "type": "function"
    },
    {
      "inputs": [],
      "name": "PAIR",
      "outputs": [
        {
          "internalType": "address",
          "name": "",
          "type": "address"
        }
      ],
      "stateMutability": "view",
      "type": "function"
    },
    {
      "inputs": [],
      "name": "WETH",
      "outputs": [
        {
          "internalType": "address",
          "name": "",
          "type": "address"
        }
      ],
      "stateMutability": "view",
      "type": "function"
    },
    {
      "inputs": [],
      "name": "farm",
      "outputs": [],
      "stateMutability": "nonpayable",
      "type": "function"
    },
    {
      "inputs": [],
      "name": "owner",
      "outputs": [
        {
          "internalType": "address",
          "name": "",
          "type": "address"
        }
      ],
      "stateMutability": "view",
      "type": "function"
    },
    {
      "inputs": [],
      "name": "renounceOwnership",
      "outputs": [],
      "stateMutability": "nonpayable",
      "type": "function"
    },
    {
      "inputs": [
        {
          "internalType": "uint256",
          "name": "stakingAPY_",
          "type": "uint256"
        }
      ],
      "name": "setAPY",
      "outputs": [],
      "stateMutability": "nonpayable",
      "type": "function"
    },
    {
      "inputs": [
        {
          "internalType": "uint256",
          "name": "amount_",
          "type": "uint256"
        }
      ],
      "name": "stakeLpToken",
      "outputs": [],
      "stateMutability": "nonpayable",
      "type": "function"
    },
    {
      "inputs": [],
      "name": "stakingAPY",
      "outputs": [
        {
          "internalType": "uint256",
          "name": "",
          "type": "uint256"
        }
      ],
      "stateMutability": "view",
      "type": "function"
    },
    {
      "inputs": [
        {
          "internalType": "address",
          "name": "newOwner",
          "type": "address"
        }
      ],
      "name": "transferOwnership",
      "outputs": [],
      "stateMutability": "nonpayable",
      "type": "function"
    },
    {
      "inputs": [],
      "name": "unStakeLpToken",
      "outputs": [],
      "stateMutability": "nonpayable",
      "type": "function"
    }
  ],
  "bytecode": {
    "object": "0x60e06040523480156200001157600080fd5b5060405162000fa338038062000fa383398101604081905262000034916200024a565b6200003f33620001dd565b6001600160a01b0382811660a08190528282166080819052600a6003556002546040516364e329cb60e11b81529316600484015260248301529063c9c65396906044016020604051808303816000875af1158015620000a2573d6000803e3d6000fd5b505050506040513d601f19601f82011682018060405250810190620000c8919062000282565b5060a0516001546080516040516364e329cb60e11b81526001600160a01b039283166004820152908216602482015291169063c9c65396906044016020604051808303816000875af115801562000123573d6000803e3d6000fd5b505050506040513d601f19601f8201168201806040525081019062000149919062000282565b5060a05160015460805160405163e6a4390560e01b81526001600160a01b039283166004820152908216602482015291169063e6a4390590604401602060405180830381865afa158015620001a2573d6000803e3d6000fd5b505050506040513d601f19601f82011682018060405250810190620001c8919062000282565b6001600160a01b031660c05250620002a79050565b600080546001600160a01b038381166001600160a01b0319831681178455604051919092169283917f8be0079c531659141344cd1fd0a4f28419497f9722a3daafe3b4186f6b6457e09190a35050565b80516001600160a01b03811681146200024557600080fd5b919050565b600080604083850312156200025e57600080fd5b62000269836200022d565b915062000279602084016200022d565b90509250929050565b6000602082840312156200029557600080fd5b620002a0826200022d565b9392505050565b60805160a05160c051610cb1620002f26000396000818161015f015281816102720152818161029d0152818161040501526104300152600060e4015260006101860152610cb16000f3fe608060405234801561001057600080fd5b50600436106100a95760003560e01c806336e9332d1161007157806336e9332d14610139578063715018a6146101415780638da5cb5b14610149578063ace3a8a71461015a578063ad5c464814610181578063f2fde38b146101a857600080fd5b80631531b62a146100ae57806324f45e67146100ca5780632dd31000146100df578063312d6ace1461011e578063332c6fcc14610131575b600080fd5b6100b760035481565b6040519081526020015b60405180910390f35b6100dd6100d8366004610ac8565b6101bb565b005b6101067f000000000000000000000000000000000000000000000000000000000000000081565b6040516001600160a01b0390911681526020016100c1565b6100dd61012c366004610ac8565b6101f3565b6100dd6102c7565b6100dd61045b565b6100dd61051d565b6000546001600160a01b0316610106565b6101067f000000000000000000000000000000000000000000000000000000000000000081565b6101067f000000000000000000000000000000000000000000000000000000000000000081565b6100dd6101b6366004610ae1565b610553565b6000546001600160a01b031633146101ee5760405162461bcd60e51b81526004016101e590610b0a565b60405180910390fd5b600355565b33600090815260046020526040902054156102215760405163ccc95eb760e01b815260040160405180910390fd5b3360009081526004602052604081208054839290610240908490610b55565b90915550503360009081526004602052604081206001018054429290610267908490610b55565b9091555061029890507f000000000000000000000000000000000000000000000000000000000000000030836105eb565b6102c47f0000000000000000000000000000000000000000000000000000000000000000333084610738565b50565b33600090815260046020526040902054806102f55760405163280247c560e11b815260040160405180910390fd5b60006102ff610776565b33600090815260046020819052604080832083815560010192909255600254915163140e25ad60e31b81529081018390529192506001600160a01b03169063a0712d68906024016020604051808303816000875af1158015610365573d6000803e3d6000fd5b505050506040513d601f19601f820116820180604052508101906103899190610b6d565b5060025460405163a9059cbb60e01b8152336004820152602481018390526001600160a01b039091169063a9059cbb906044016020604051808303816000875af11580156103db573d6000803e3d6000fd5b505050506040513d601f19601f820116820180604052508101906103ff9190610b6d565b5061042b7f000000000000000000000000000000000000000000000000000000000000000033846105eb565b6104577f0000000000000000000000000000000000000000000000000000000000000000303385610738565b5050565b6000610465610776565b3360009081526004602081905260409182902042600190910155600254915163140e25ad60e31b81529081018390529192506001600160a01b03169063a0712d68906024016020604051808303816000875af11580156104c9573d6000803e3d6000fd5b505050506040513d601f19601f820116820180604052508101906104ed9190610b6d565b50600254610505906001600160a01b031633836105eb565b6002546102c4906001600160a01b0316303384610738565b6000546001600160a01b031633146105475760405162461bcd60e51b81526004016101e590610b0a565b6105516000610823565b565b6000546001600160a01b0316331461057d5760405162461bcd60e51b81526004016101e590610b0a565b6001600160a01b0381166105e25760405162461bcd60e51b815260206004820152602660248201527f4f776e61626c653a206e6577206f776e657220697320746865207a65726f206160448201526564647265737360d01b60648201526084016101e5565b6102c481610823565b8015806106655750604051636eb1769f60e11b81523060048201526001600160a01b03838116602483015284169063dd62ed3e90604401602060405180830381865afa15801561063f573d6000803e3d6000fd5b505050506040513d601f19601f820116820180604052508101906106639190610b8f565b155b6106d05760405162461bcd60e51b815260206004820152603660248201527f5361666542455032303a20617070726f76652066726f6d206e6f6e2d7a65726f60448201527520746f206e6f6e2d7a65726f20616c6c6f77616e636560501b60648201526084016101e5565b6040516001600160a01b03831660248201526044810182905261073390849063095ea7b360e01b906064015b60408051601f198184030181529190526020810180516001600160e01b03166001600160e01b031990931692909217909152610873565b505050565b6040516001600160a01b03808516602483015283166044820152606481018290526107709085906323b872dd60e01b906084016106fc565b50505050565b336000908152600460209081526040808320815180830190925280548252600190810154928201839052909162015180906107b19042610ba8565b6107bb9190610bbf565b10156107da5760405163cf314cff60e01b815260040160405180910390fd5b60646003546107e99190610bbf565b81516107f59190610be1565b620151808260200151426108099190610ba8565b6108139190610bbf565b61081d9190610be1565b91505090565b600080546001600160a01b038381166001600160a01b0319831681178455604051919092169283917f8be0079c531659141344cd1fd0a4f28419497f9722a3daafe3b4186f6b6457e09190a35050565b60006108c8826040518060400160405280602081526020017f5361666542455032303a206c6f772d6c6576656c2063616c6c206661696c6564815250856001600160a01b03166109459092919063ffffffff16565b80519091501561073357808060200190518101906108e69190610b6d565b6107335760405162461bcd60e51b815260206004820152602a60248201527f5361666542455032303a204245503230206f7065726174696f6e20646964206e6044820152691bdd081cdd58d8d9595960b21b60648201526084016101e5565b6060610954848460008561095e565b90505b9392505050565b6060824710156109bf5760405162461bcd60e51b815260206004820152602660248201527f416464726573733a20696e73756666696369656e742062616c616e636520666f6044820152651c8818d85b1b60d21b60648201526084016101e5565b6001600160a01b0385163b610a165760405162461bcd60e51b815260206004820152601d60248201527f416464726573733a2063616c6c20746f206e6f6e2d636f6e747261637400000060448201526064016101e5565b600080866001600160a01b03168587604051610a329190610c2c565b60006040518083038185875af1925050503d8060008114610a6f576040519150601f19603f3d011682016040523d82523d6000602084013e610a74565b606091505b5091509150610a84828286610a8f565b979650505050505050565b60608315610a9e575081610957565b825115610aae5782518084602001fd5b8160405162461bcd60e51b81526004016101e59190610c48565b600060208284031215610ada57600080fd5b5035919050565b600060208284031215610af357600080fd5b81356001600160a01b038116811461095757600080fd5b6020808252818101527f4f776e61626c653a2063616c6c6572206973206e6f7420746865206f776e6572604082015260600190565b634e487b7160e01b600052601160045260246000fd5b60008219821115610b6857610b68610b3f565b500190565b600060208284031215610b7f57600080fd5b8151801515811461095757600080fd5b600060208284031215610ba157600080fd5b5051919050565b600082821015610bba57610bba610b3f565b500390565b600082610bdc57634e487b7160e01b600052601260045260246000fd5b500490565b6000816000190483118215151615610bfb57610bfb610b3f565b500290565b60005b83811015610c1b578181015183820152602001610c03565b838111156107705750506000910152565b60008251610c3e818460208701610c00565b9190910192915050565b6020815260008251806020840152610c67816040850160208701610c00565b601f01601f1916919091016040019291505056fea26469706673582212206d03b2923daad913a5de8ee017a5037ab0ca4de645e39986787f4a439dadd35464736f6c634300080a0033",
    "linkReferences": {}
  }
}